:1000000000800020BD01000081F5000039F50000EE
:1000100039F5000039F5000039F5000039F5000028
:1000200039F5000039F5000039F5000081F50000D0
:1000300081F5000039F5000091EB000095EC00001F
:1000400081F5000081F5000081F5000081F50000D8
:1000500081F5000081F5000081F5000081F50000C8
:1000600081F5000081F5000081F5000081F50000B8
:1000700081F5000081F5000081F5000081F50000A8
:1000800081F5000081F5000081F5000081F5000098
:1000900081F5000081F5000081F5000081F5000088
:1000A000E5170000F117000081F5000081F5000060
:1000B00081F5000081F5000081F5000081F5000068
:1000C00081F5000081F5000081F5000081F5000058
:1000D00081F5000081F5000081F5000081F5000048
:1000E00081F5000081F5000081F5000081F5000038
:1000F00081F50000890E010081F50000CDFB0000B4
:1001000081F50000B50F010081F5000081F50000C8
:1001100081F5000081F5000081F5000081F5000007
:1001200081F5000081F5000081F5000081F50000F7
:1001300081F5000081F5000081F5000081F50000E7
:1001400081F5000081F5000081F5000081F50000D7
:1001500081F5000081F5000081F5000081F50000C7
:1001600081F500008DFE000081F5000081F50000A2
:1001700081F5000081F5000081F5000081F50000A7
:1001800081F5000081F5000081F5000081F5000097
:1001900081F5000081F5000081F5000081F5000087
:1001A00081F5000081F5000081F5000081F5000077
:1001B00081F5000081F5000081F50000564B4CF2FE
:1001C000205210B51A804DF628121A8000BF00BFC9
:1001D0000FF0DAF9514B4FF010621A60504A9A60F2
:1001E000504ADA60504A136813F4807304D14F49BF
:1001F0000B604FF4A85313604D4B1A78110703D5C9
:100200001A7842F008021A704A4B4B492A221A7097
:100210004A4A4B4B8B4204D252F8040F43F8040B6A
:10022000F8E7484B484900228B4202D243F8042B9E
:10023000FAE74649464A002352F8230041F82300D2
:1002400001336F2BF8D1434B434A802103F8011B44
:100250009342FBD1414B3D4A1A60414B8A221A70AE
:10026000A3F5805324225A70A0221A709A7992071B
:10027000FCD59A79D406FCD43A4A937903F00C035E
:10028000082B384BF9D103221A7140225A719A79FE
:100290009006FCD5334A9179324B4906FBD5324A58
:1002A000324911600221516020221A709A7902F0BD
:1002B0000C020C2AFAD12E4B2E4A1A602E4B2F4AD2
:1002C0001A6000225A60072243F8042C2C4AC3F813
:1002D0000C2D62B60FF050FB144B1B68DA0705D5E6
:1002E00028480FF0BBFA284B284A1A60284B1B7885
:1002F0005B0609D5244C254B22689A4204D121483B
:100300000FF0ACFA0023236014F0EAFA0FF042F980
:100310000FF070F8FEE700BF0E200540308004406B
:10032000823F04000100002B10D0034014D0034092
:1003300002D0074000E00740F097FF1F64FD010076
:100340002087FF1FF097FF1FC4A1FF1F0082FF1F20
:100350000000000000E400E05FE400E008ED00E0E1
:100360000050064000400640448004400000030165
:1003700004800440C010050014E000E0FF76010096
:1003800000002020356E755C1CE00340A5C3945A24
:1003900000F00740FFFFFFFFFFFFFFFFFFFFFFFF32
:1003A000FFFFFFFFFFFFFFFFFFFFFFFFFFFFFFFF5D
:1003B000FFFFFFFFFFFFFFFFFFFFFFFFFFFFFFFF4D
:1003C000FFFFFFFFFFFFFFFFFFFFFFFFFFFFFFFF3D
:1003D000FFFFFFFFFFFFFFFFFFFFFFFFFFFFFFFF2D
:1003E000FFFFFFFFFFFFFFFFFFFFFFFFFFFFFFFF1D
:1003F000FFFFFFFFFFFFFFFFFFFFFFFFFFFFFFFF0D
:10040000FFFFFFFFFFFFFFFFFFFFFFFFDEF9FFFF23
:1004100010B5054C237833B9044B13B10448AFF33E
:1004200000800123237010BDF097FF1F0000000023
:1004300060FD0100084B10B51BB108490848AFF337
:1004400000800848036803B910BD074B002BFBD0A0
:10045000BDE81040184700BF00000000F497FF1FE0
:1004600060FD0100F097FF1F00000000F8B54FF499
:1004700096713848384F394E394D3A4C00F0F4FDFA
:100480004FF47A71384800F0EFFD3221374800F020
:10049000EBFD102047F8040B00210FF0F7F90A20BC
:1004A0000EF06CFE3846642100F0DEFD0F2046F8A9
:1004B000040B00210FF0EAF90A200EF05FFE30462F
:1004C000642100F0D1FD0E2045F8040B00210FF04F
:1004D000DDF90A200EF052FE6421284600F0C4FD2A
:1004E000234800F057FE4FF424700FF06DF82149B7
:1004F000054603F0C7FB2846656007F087F80368E8
:1005000020601B691C4D984723681C4AD3F884302F
:10051000A0600021012483F8A3101D6783F8A14087
:1005200083F8A240204614700FF0D8F920460FF04F
:10053000D5F944F620600FF08FFA20460FF0CEF97F
:1005400021460D200FF0A2F921460D48BDE8F840E4
:1005500000F03EBD189BFF1FE09AFF1F109AFF1F7F
:10056000289AFF1FD49AFF1F049BFF1FF49AFF1FB6
:100570000088FF1F60BF01000AD7A33C149BFF1F28
:10058000389CFF1FF8B53F4E3378032B5AD8DFE86D
:1005900003F04F5A3F0210F0A9FA431C52D0B7683B
:1005A000347B394DC0B20021CAB2082312F0010FCA
:1005B00003F1FF3318BF624013F0FF034FEA52020A
:1005C000F4D10131B1F5807F05F8012FECD1002F76
:1005D00056D02E4C19461A46615C01324B40D2B2BD
:1005E00056FA83F397425B7B1146F5D8984207D1C0
:1005F000264B1A780023642A33707360B36035D0B9
:100600004FF4007200212148BDE8F84014F02CBDE1
:1006100010F06CFA421C27D072681C49531C885495
:100620007360B168174A99420CDC03231370F8BD5C
:1006300010F098FA002805DD10F058FAC82801D10A
:1006400001233370F8BD10F08DFA002808DD10F09A
:100650004DFAB06001300B4BF4D002221A70F8BD95
:100660004FF0FF33B360F8BD7368DAE70221084842
:1006700000F0AEFC0749084A01230B701370BFE776
:100680003B46B3E7289BFF1F349BFF1F0C98FF1FBF
:10069000389CFF1F0C9AFF1F249AFF1FF0B583B0F0
:1006A000224800AF00F0FEFC88B1214B1B7873B1EB
:1006B0000223C822194638467B703A7010F07CFA43
:1006C00002286D4606D01948AD4600F0DDFC0C3717
:1006D000BD46F0BD174E34466423002114F80C0FBC
:1006E0003B717971CAB2082312F0010F03F1FF3395
:1006F00018BF424013F0FF034FEA5202F4D1013118
:10070000B1F5807F04F8012FECD17B7996F8712048
:10071000534033440221381D5C7B10F04DFA02280F
:10072000D1D1204610F0CCFACDE700BF189BFF1FB7
:100730000C9AFF1F289BFF1F08B50E4800F0B2FC63
:1007400048B10D4B1A783AB100221A700948BDE839
:10075000084000F099BC08BD084B09481A700121F7
:1007600000F036FC074B034801221A70BDE8084030
:1007700000F08ABC049BFF1F249AFF1F0C9AFF1FE6
:10078000389CFF1FFC87FF1F2DE9F041BA4DA4B034
:10079000286800AF02680023002467213B667B665F
:1007A000926987F85D40BB66FB663B677B67BB670A
:1007B000FB67C7F88030C7F88430C7F88830C7F8BF
:1007C0008C3087F85C10904740B32B68D8699C69DF
:1007D000996BDA6BB866986DD3F840C0D3F848E0EF
:1007E000DE6C7C66B9671C6DD96DFA67C7F884004A
:1007F0001A6EA2485B697C67C7F880C0C7F86CE0D6
:100800003E67C7F88810C7F88C203B66012400F0CB
:1008100049FC48B99037BD46BDE8F0810446974889
:1008200000F040FC0028F5D0954E301D00F03AFC59
:10083000002840F00B81934E301D00F033FC00285F
:1008400040F0EF80904E301D00F02CFC002840F06E
:1008500085808E4B1E78002E00F09980DFF83C8258
:1008600098F80030BBB12B681A7922B9D3F88030E0
:1008700093F825307BB9C8220523022138463A7007
:100880007B7010F099F902286E4600F0DD8200239B
:10089000B54688F8003044BB00220023C7E90C238A
:1008A000C7E90E2368210023002287F8292087F852
:1008B00050203B647B64BB64FB6487F8281005E030
:1008C0000FF050F9C1B272480DF0B2FF0FF03AF9D3
:1008D0000028F5D16E4E96F86C30BBB9674800F031
:1008E000D3FB9037BD46BDE8F081C82234230221F6
:1008F00007F1280087F8282087F8293010F05CF9E4
:1009000002286D4600F05E82AD46C5E738463146A6
:100910003D460DF09BFF0FCD06F170040FC40FCDC7
:100920000FC495E8030044F8040B96F89130218039
:1009300023B196F89230002B40F0B280554BFB6407
:10094000C8223023384602213A707B7010F034F907
:1009500002286D4600F0E381AD46BFE730780EF027
:1009600041FC8046301D00F08FFBC8220423022189
:1009700038463A707B7010F01FF902286E4600F07E
:100980007F81B546414B1E78002E7FF467AFC822A9
:100990000523022138463A707B7010F00DF90228C9
:1009A0006D46B1D13C4A87F8296096464FF0690CF4
:1009B000322167231EF80C4F87F82C60304687F8E9
:1009C00028C087F82A1087F82B30C1B20823CE0739
:1009D00003F1FF3348BF614013F0FF034FEA5101B9
:1009E000F5D10130B0F5807F0EF8011FEDD107F190
:1009F00028001C46014607F12C06692301E011F886
:100A0000013F634013448E425C7BF8D1052110F016
:100A1000D3F805287FF478AF204610F051F9AD46A1
:100A20003AE730780EF0DEFB8046301D00F02CFBFC
:100A3000C8220423022138463A707B7010F0BCF8BB
:100A400002286E4600F0CD80B546FBE630780EF009
:100A5000C9FB8046301D00F017FB0423C822022189
:100A600038467B703A7010F0A7F802286E460346AD
:100A700067D0B546DFE600BFD49AFF1FF49AFF1F88
:100A8000E09AFF1F109AFF1F289AFF1F149BFF1F59
:100A90003C9AFF1F000080BF289BFF1FFC87FF1FA1
:100AA000306F12F0E5FEC0A3D3E9002312F046FF39
:100AB000C7E90C01706F12F0DBFEBBA3D3E9002382
:100AC00012F03CFFC7E90E01B6F97A0013F038FBCB
:100AD000B74913F089FB0446B6F9780013F030FBF0
:100AE0000146204613F078FA3864B6F97E0013F018
:100AF00027FBB04913F078FB0446B6F97C0013F0ED
:100B00001FFB0146204613F067FA7864B6F98200AD
:100B100013F016FBA64913F067FB0446B6F98000F4
:100B200013F00EFB0146204613F056FAB86496F80F
:100B3000840013F001FB96F88C30F86487F850308D
:100B4000FEE66622404687F8282087F8293013F011
:100B5000F7FA994913F048FB984913F045FB13F055
:100B600009FD974A788594464FF0000E1CF80C0F4B
:100B70005FFA8EF1082311F0010F03F1FF3318BF64
:100B8000414013F0FF034FEA5101F4D10EF1010E81
:100B9000BEF5807F0CF8011FEAD192F873E097F858
:100BA000291097F82A0097F82B308EEA010E964408
:100BB00004219EF80DE08EEA000E964407F128000D
:100BC0009EF80DE08EEA03031A4492F80D800FF0B0
:100BD000F3FF04287FF44DAF404610F071F8B5469E
:100BE00029E666220123404687F8282087F8293025
:100BF00013F0A6FA704913F0F7FA704913F0F4FAFB
:100C000013F0B8FC6E4A788594464FF0000E1CF83D
:100C10000C0F5FFA8EF1082311F0010F03F1FF337F
:100C200018BF414013F0FF034FEA5101F4D10EF118
:100C3000010EBEF5807F0CF8011FEAD192F87330E7
:100C400097F8290097F82AE097F82BC058401044ED
:100C50000421407B8EEA000E964407F128009EF89E
:100C60000D308CEA03031A4492F80D800FF0A4FFB4
:100C700004287FF4E9AE404610F022F8B546E1E5DD
:100C800066220323404687F8282087F8293013F08E
:100C900057FA494913F0A8FA484913F0A5FA13F096
:100CA00069FC474A788594464FF0000E1CF80C0FFB
:100CB0005FFA8EF1082311F0010F03F1FF3318BF23
:100CC000414013F0FF034FEA5101F4D10EF1010E40
:100CD000BEF5807F0CF8011FEAD192F8733097F8C7
:100CE000290097F82AE097F82BC0584010440421B7
:100CF000407B8EEA000E964407F128009EF80D30E6
:100D00008CEA03031A4492F80D800FF055FF042873
:100D10007FF437AE40460FF0D3FFB54632E68CB0D5
:100D20006E46EE4607F1280C07F1580864460FCCD2
:100D30004445CEF80000CEF80410CEF80820CEF8D6
:100D40000C30A4460EF1100EF0D11D4A9646002438
:100D50001EF80C0FE1B2082311F0010F03F1FF336D
:100D600018BF414013F0FF034FEA5101F4D10134A1
:100D7000B4F5807F0EF8011FECD11C46711E06F100
:100D80002F0011F8013F6340134481425C7BF8D18E
:100D9000304630210FF010FF30287FF4DDAD2046C3
:100DA0000FF08EFFAD4699E5000000A0F2D77A3E25
:100DB0000AD7233C6F12833A0AD7A33B00007A4438
:100DC000289BFF1F8EB06E466C4607F15C0C07F146
:100DD0008C08E646BEE80F00C64520606160A26050
:100DE000E360F44604F11004F3D1364ADEF8000063
:100DF0002060964600241EF80C0FE1B2082311F083
:100E0000010F03F1FF3318BF414013F0FF034FEA16
:100E10005101F4D10134B4F5807F0EF8011FECD1FB
:100E20001C46711E06F1330011F8013F6340134464
:100E300081425C7BF8D1304634210FF0BDFE34286E
:100E40003FF4EAADAD4627E51E4A964669230020E9
:100E500087F82830342167231EF80C5F87F82900B3
:100E600087F82C0087F82A1087F82B30C1B20823A6
:100E700011F0010F03F1FF3318BF694013F0FF03B6
:100E80004FEA5101F4D10130B0F5807F0EF8011F17
:100E9000ECD107F128001D46014607F12C0E69230D
:100EA00001E011F8013F6B40134471455D7BF8D1BF
:100EB00005210FF081FE05287FF4E9AC28460FF0EC
:100EC000FFFEE4E4289BFF1F08B5084800F0A6F8E1
:100ED000FFF758FBFFF730FCFFF7E0FB044B1B78F4
:100EE00003B908BDBDE80840FFF74EBC389CFF1FA2
:100EF0000C9AFF1F38B50EF0F3F92648264D00F086
:100F0000AFF8264800F0ACF8254800F0A9F80D210C
:100F1000244800F053F8244B2448912200241A73EB
:100F20001C705C609C6000F09BF8214800F098F811
:100F3000204800F095F8204B28469C600CF084FF78
:100F400005F185006C672C67A5F87840A5F87A4014
:100F5000A5F87C40A5F87E40A5F88040A5F8824021
:100F600085F884400DF0EEFC85F88C4085F88E40C5
:100F700085F88F4085F8904085F8914085F892403B
:100F800085F8934085F8944085F8954085F88D4024
:100F900038BD00BF189BFF1F3C9AFF1F049BFF1F1B
:100FA000F49AFF1F389CFF1F289BFF1FE49AFF1F26
:100FB000149AFF1F2C9AFF1FD49AFF1F38B50446BE
:100FC0000D4600F04DF800232582A383204638BD4E
:100FD000827F8A420FD038B505460C46A97700F0CB
:100FE0007DF8012C09D00DD3022C05D1084B6B6183
:100FF0000C23AB6138BD704738BD064B6B610423D1
:10100000AB6138BD044B6B610423AB6138BD00BFDD
:1010100074BF01008CBF01006CBF0100818B82692D
:10102000914202D300228283704710B5044600F03B
:1010300039F870B1A38B6269D9070BD432F8131059
:1010400001B10121207C0EF01BFCA38B0133A38393
:1010500010BD10BD204632F8131000F005F8F4E77B
:1010600000220273704700BF037B4BB9054B8160C0
:1010700082B01B680193019B03600123037302B0DC
:10108000704700BFEC9EFF1F054B82B01B680193A9
:10109000037B019A02600BB90123037302B070470E
:1010A000EC9EFF1F0346007BA0B110B40A4A1C68E7
:1010B0001268996883B00192019A5A60121B8A42A1
:1010C00004D300221A7303B010BC7047002003B091
:1010D00010BC704701207047EC9EFF1F0023037374
:1010E000704700BF0020704790F8392090F8380012
:1010F000101A704790F8383090F839209A4205D984
:101100005A1C034480F83820187E70474FF0FF3097
:10111000704700BF90F8383090F839209A4286BF67
:101120001B18187E4FF0FF30704700BF704700BF9C
:1011300038B50546B0F85E0090B195F85D301446BC
:10114000C3F1210294420CD805F13B001844224619
:101150000EF058F995F85D30234485F85D3020464F
:1011600038BD012014462871EEE700BFB0F85E30AC
:101170006BB190F85D30202B07D8C218013380F88E
:101180005D30012082F83B1070470123037100207D
:10119000704700BF0023426980F8383080F839304A
:1011A00080F85C3080F85D3080F85E3080F85F3029
:1011B00006CA30B40D68046943662A4383660A6030
:1011C000A370426990F861301649146813441D7A7F
:1011D0005B7B01EBC5051B026D6803F4E06343F024
:1011E00064032B6090F8623013449D7CDB7D01EB3F
:1011F000C5011B02496803F4E06343F064030B601C
:1012000021685368194205D0036927225A7003697F
:1012100004229A71036920225A71036980229A700C
:1012200030BC704720F5010010B50269D378DBB2FD
:10123000D90604463DD510215806D17038D503F0A3
:10124000040303F0FF02002B51D03D49626E0023DE
:101250000B7084F85D30002A5BD0904794F85D30C5
:10126000002B56D02369D0229A70236994F83B2032
:101270001A712369012284F85C200222DA7010BD01
:10128000304B84F860009C424AD02F4B9C4252D095
:1012900094F8391013791F29DBB207D82848007851
:1012A00020B16018013184F8391003760223D3701D
:1012B00010BD5906C3D4917801F0100101F0FF0070
:1012C0000029DDD013F001031ED194F85C1094F8CE
:1012D0005D00884281BF4B1C091984F85C3091F88D
:1012E0003B3013712369D0229A702269DEE72369AB
:1012F00084F83920C0229A702369114A1979012192
:1013000011700222DA7010BDC02393702269137924
:10131000CCE70122002384F85D2084F83B30A1E76C
:10132000626994F86130094913440322187A0EF077
:10133000D5F92269ACE7626994F861300449F3E7B2
:10134000589CFF1F0088FF1F6C88FF1FB11300000F
:10135000BD1300000369DB7803F0200373B190F83C
:1013600060300133DBB2012B80F860301AD942695A
:1013700090F861301344187A0EF02CBA70B54269B7
:1013800003F0FF0590F8613013440446187A0EF01C
:1013900021FAA36E5BB184F8385094F83900BDE8A7
:1013A0007040184790F85F30002BE0D0704770BD58
:1013B0000148FFF7CFBF00BF0088FF1F0148FFF7BC
:1013C000C9BF00BF6C88FF1F2DE9F047374FDFF81A
:1013D000E0903B68026982B006460093DDF8008029
:1013E0000021A025D3789B065BD53B680193019B28
:1013F000C8EB03030F2BF5D949B1102BF2D0002015
:101400009070336980229A7002B0BDE8F0877269EB
:1014100096F8613013440521187A0EF037FA726994
:1014200096F861301344012193F812A050460EF053
:101430002DFA0924002150460EF022FA2B46013BDA
:10144000FDD1012150460EF01BFA2B46013BFDD188
:10145000013CEFD1706996F8611001444FF4A0721D
:101460000C7A4B7B09EBC4011B02496803F4E0636F
:1014700043F064030B6096F862300344997CDB7D93
:1014800009EBC1011B02496803F4E06343F0640304
:101490000B60013AFDD13269D3789B064FF0010110
:1014A000A3D4012002B0BDE8F08700BFEC9EFF1F6F
:1014B00020F50100F0B503691222DA700269937811
:1014C00003F0200385B004460D46002B5ED0B42304
:1014D00093703C4922690B680093009E05E00B68FD
:1014E0000193019B9B1B042B42D8D37803F020036C
:1014F00003F0FF00002BF2D094F85D30002B31D0C8
:101500004FF0000E4FF0020C04EB0E0393F83B304B
:1015100013710B680393039F206907E09B060DD5A9
:101520000B680293029BDB1B052B28D8C378DBB228
:1015300003F0020202F0FF06002AEFD080F803C099
:101540002669F378DBB2DF0632462DD49F062BD511
:10155000DB0731D40EF1010E94F85D305FFA8EFE98
:101560007345D1D800201DBB002384F85E3004E011
:101570009070236980229A70042005B0F0BD8670B7
:101580002369802204209A7005B0F0BD03F0FF06A5
:10159000FFF71AFF10B9042005B0F0BD236984F8E5
:1015A0005F60B0229A7094E78023B3700420DAE77A
:1015B00026698023B370D7E7BEF1000F0CBF02206D
:1015C0000320F6E7EC9EFF1F2DE9F0410669002598
:1015D000122780F8385080F83950F770D0F810C0D2
:1015E0009CF802E00EF0200E88B0044688461546AE
:1015F0001E46BEF1000F49D0B4238CF80230784B60
:1016000021691A680092DDF800E006E01A6801928C
:101610000198CEEB0000042830D8C87800F02000F4
:1016200000F0FF070028F1D04FEA480242F0010223
:10163000D2B20A711A680292DDF808E0206906E069
:101640001A6803920399CEEB010105292AD8C178C3
:1016500001F0020101F0FF070029F1D04FF0020C68
:1016600080F803C02269D17811F0110722D12DBB77
:10167000002E0CBFA0238023937003E08F7023699A
:1016800080229A70384608B0BDE8F0810EF0FF075E
:10169000FFF79AFE0028F5D0236984F85F70B02226
:1016A0009A70ACE787702369802238469A7008B038
:1016B000BDE8F081802393700027E3E7012D75D00A
:1016C000A021917021690A79BE4667464FF0A80CA7
:1016D0001A680492049805E01A680592059A121A8D
:1016E000052A4AD8CA7802F0020202F0FF08002A4E
:1016F000F2D0CF702169CA78D2B212F0100F08462A
:101700005AD1920658D5013DEDB2012D49D0BEF116
:101710001F0F3BD90A79012DDAD11A680692069D6E
:1017200005E01A680792079A521B052A46D8C27824
:1017300002F0020202F0FF01002AF2D00223C3707D
:101740002269D378DBB2D9063AD49B0634D5B023CC
:10175000BEF11F0F93703FD8226904EB0E0312797C
:101760001A760EF1010E5FFA8EFE16B12369802201
:101770009A7084F839E0774684E781F8028023691B
:1017800080229A70774684F839E07BE704EB0E02FA
:1017900091F8048082F818800EF1010E5FFA8EFE37
:1017A000B9E781F802C021690846B0E7A821917025
:1017B0002069BE460279B0E7774663E78170DEE7CD
:1017C0001021A023D170013BFDD12269937803F051
:1017D000F7037746937055E723691B79C5E700BF88
:1017E000EC9EFF1F0148FFF71FBD00BF0088FF1FD1
:1017F0000148FFF719BD00BF6C88FF1F10B4047FBC
:101800004160022CC26002D010BC0DF05FB9836849
:1018100010BC1847F0B4464B464A186BDC6A017995
:101820001170454922790A709A6A00790870002A75
:1018300046D05968C9688A423ED82168CC8B2404B6
:1018400002F1FF3065D4C0F30E00C883C88B80B2AC
:10185000C882196B0968C88B000452D4C2F30E0009
:10186000C883C88B002480B212F1FF32C88218BF2F
:1018700001229C62D96A2E4809680D6800F124048F
:10188000A54236D00068C46814F0804F0C680D681B
:1018900015BF248824780235013544F000440D60DA
:1018A0004463196B254B09791970214912B1CA6A31
:1018B00012791A70F0BC7047521A9A620122D9E765
:1018C000586B196805681E4C0A63CC62CC682D6899
:1018D0001C4E24F080440327B542CC6083F8257069
:1018E0001FD1037F4260022BC2601ED0F0BC0DF0FE
:1018F000EDB8016890F82400CC6840F000404863DF
:10190000CFE7CC8BC2F3080004F47E442043C883A5
:10191000A7E7CC8BC0F3080004F47E442043C883BF
:1019200094E72B461146F0BC18478368F0BC184773
:10193000D888FF1F1F8000401C8000401B80004093
:1019400000000FFFFD17000090E80C00F0B41C68C9
:1019500059682568164F174E29432160164D1749BF
:101960001760D66015611160417A154A5C180A311A
:1019700094F8244053F8215002EBC40149680D60EB
:10198000017A5C1803EB8101247ECD6902EBC4016E
:1019900049680D60817A581803EB810390F8300094
:1019A000596B02EBC002F0BC53681960704700BF6E
:1019B00001401F00011000380110007800001F8056
:1019C00020F5010070B4417A44680E4B05680E4E54
:1019D0002144002291F8241003EBC10149680A60F8
:1019E000017A2144097E03EBC10149680A60817ACA
:1019F000214491F8301003EBC1035B681A602E603C
:101A000070BC704720F5010001401F0000207047A6
:101A1000704700BF704700BF704700BF10B5B021CE
:101A200004460DF0D3FD204610BD00BF224B10B57B
:101A3000044640F8043B04F0D9FF04F1100004F020
:101A4000D5FF04F11C0004F0D1FF04F1280005F0DB
:101A500087F804F1380004F0C9FF04F1440005F0F0
:101A60007FF804F1540004F0C1FF04F1600005F0B8
:101A700077F804F1740005F073F804F1840005F0C0
:101A80006FF804F1940004F0B1FF002300224FF03E
:101A90007E500A4984F8A0300123E066216784F86B
:101AA000A53084F8A13084F8A23084F8A3302266EF
:101AB0006266A266204610BD04C101000AD7A33C9D
:101AC0002DE9F04F95B0064668461F460C46154670
:101AD00005F046F804A805F043F896F8A23006F1A0
:101AE0003809002B3DD02046494604F0D7FF96F830
:101AF000A3301BB196F8A430002B57D1F36D33649B
:101B000006F1280A5046494605F0E8F9444F06F127
:101B1000240B00254FF0FF385BF8044F24F00044FD
:101B20002046394612F01CFD08B12746A84601356B
:101B3000042DF1D106EB88080021D8F82840204672
:101B400012F0F0FCA8B92046002112F009FD28B1DE
:101B5000D8F84400002112F0E5FC88B915B0BDE8C2
:101B6000F08F484606F1540104F046FF0023336429
:101B7000BDE70021D8F8440012F0F2FC0028E2D0C2
:101B800006F128000FC800F1004501F1004402F100
:101B9000004203F1004349465046B562F4623263A5
:101BA000736305F015F915B0BDE8F08F494604A838
:101BB00005F094F92A686968019200236A4608A82A
:101BC00000930291AB68039304A905F093F804A96C
:101BD0000CA805F01BFA0CAA08A910A805F08AF8B1
:101BE00010A9684604F0C2FF019811F053FE0446A4
:101BF0000D46029811F04EFE22462B460FF0C6FB12
:101C00000546384601F1004411F044FE02460B46F9
:101C10002846214611F0DEFC12F088F930646FE7A7
:101C200000007AC40120704710B5034B03600446DE
:101C3000FFF7F2FE204610BD20C1010010B5064B93
:101C400003600446FFF7E8FE20464FF438710DF0BC
:101C5000BDFC204610BD00BF20C1010070B50123AE
:101C600084B0044680F8A53000F1540501A804F0C2
:101C7000BDFE01A9284604F0BFFE294604F1440038
:101C800005F02CF901A804F0B1FE01A904F1B0009F
:101C900004F0B2FE01A804F0A9FE01A904F11000AD
:101CA00004F0AAFE01A804F0A1FE01A904F11C00A1
:101CB00004F0A2FE04F1380601A804F097FE01A981
:101CC000304604F099FE0025314604F1280005F065
:101CD00005F904F52870294605F0CCF9294604F5E4
:101CE000F07005F0C7F90A4A0A4BC4F8E021C4F8BD
:101CF000F421C4F80822C4F81C22C4F8A032C4F8A5
:101D0000B432C4F8C832C4F8DC3204B070BD00BFCD
:101D10006F12833A6F12033A10B50446FFF786FE3E
:101D20002046194B40F8B03B04F060FE04F1C000BF
:101D300004F016FF04F1D00004F012FF04F1E000FB
:101D400005F076F904F5907005F072F904F5B070BD
:101D500005F06EF904F5D07005F06AF904F5F0703D
:101D600005F066F904F5087005F062F904F51870DD
:101D700005F05EF904F5287005F05AF92046FFF7E2
:101D80006DFF204610BD00BF20C101002DE9F041CC
:101D9000A4B0044604A805F04BF9684604F0E0FE40
:101DA000D4F8B0004FF07C5112F01EFA4FF07C5185
:101DB0000746D4F8B40012F017FA4FF07C510546EC
:101DC000D4F8B80012F010FA04F5087605F10043D3
:101DD00007F1004200F10041C4F82832C4F83C3257
:101DE000C4F82422C4F85822C4F83072C4F8380267
:101DF000C4F84052C4F84C72C4F85002C4F82C1213
:101E0000C4F84412C4F85452314604F5187814A8A2
:101E100005F0BEFA04F1C00514A9404605F014F916
:101E20002A46314614A805F013FA14A9684604F0AE
:101E30009DFED4F8BC10684604F044FF04F5B0776A
:101E40006946284604F09EFE04F5D0753A463146B0
:101E500014A805F091F914A9284605F0F5F84246B2
:101E6000394614A805F088F914A904A805F0ECF87F
:101E700004A9284605F008F904F5907604F5F072F7
:101E8000294614A805F04EF914A9304605F0DCF8EF
:101E90003046D4F8BC1005F02FF924B0BDE8F0812D
:101EA0002DE9F043B5B00446684604F059FE04A895
:101EB00005F0BEF814A805F0BBF894F8A3301BB9E0
:101EC00094F8A230002B52D024AD04F1C00828466B
:101ED00004F12801424604F1D00904F017FF294615
:101EE000484604F043FE04F5907604F52872314626
:101EF000284605F017F9294604A805F0A5F804A915
:101F0000284605F027FB294614A805F09DF804F1A2
:101F1000E00714AA3146284605F02EF9294638462E
:101F200005F092F84A463946284605F091F92946C7
:101F3000684604F01BFE6946404604F023FE04F5A3
:101F4000B074404604F0F6FE204605F00FFA39461C
:101F5000204605F0B5F832462146284605F00CF932
:101F60002946204605F070F835B0BDE8F08324AD71
:101F7000284604F1D00904F0F3FD2946484604F050
:101F8000F5FD04F1C008AEE72DE9F04790F8A13067
:101F900084B004460D469246002B5BD03031B03001
:101FA00004F02AFD04F1100805F1400631464046D0
:101FB00004F11C0905F1500704F01EFD484639469E
:101FC00004F01AFD94F8A53095F84C2084F8A4206C
:101FD000002B48D1D5E90089D4E92A01B8EB0000EB
:101FE00069EB010112F0BAF83D4912F0B1F9C4E908
:101FF0002A89C4F8BC00002112F09EFA38BB3A4688
:102000003146DAF874302046FFF75AFD2046FFF7D4
:10201000BDFE04F1C008204604F15407FFF740FF5D
:1020200004F144064046394604F0D2FE41463046AB
:1020300004F09CFD012339462B722B7605F10C0030
:1020400004F0DAFC314605F11C0004F08FFD04B009
:10205000BDE8F08701A804F0C9FC01A904F1B000B3
:1020600004F0CAFC9EE7D5E90067DAF874304A4606
:1020700041462046C4E92A67FFF722FD002104F506
:10208000087004F0F7FF002104F5B07004F0F2FFCF
:102090004FF07C52234604F14001C3F86021C3F89D
:1020A0006421C3F86821C3F86C2110338B42F4D14A
:1020B00004F1C00904F138084846414604F14406D9
:1020C00004F00CFF04F154074946304604F04EFD7D
:1020D0004146384604F090FC002384F8A530A9E777
:1020E000002474490DF0FCB80220704710B5034B72
:1020F00003600446FFF790FC204610BD3CC1010080
:1021000010B5054B03600446FFF786FC2046E82126
:102110000DF05CFA204610BD3CC1010030B5012332
:1021200085B080F8A530044600F1540501A804F0FC
:102130005DFC01A9284604F05FFC294604F1440037
:1021400004F0CCFE01A804F051FC01A904F1B00098
:1021500004F052FC01A804F049FC01A904F11000AC
:1021600004F04AFC01A804F041FC01A904F11C00A0
:1021700004F042FC04F1380501A804F037FC01A981
:10218000284604F039FC294604F1280004F0A6FE94
:102190000023C4F8E03005B030BD00BF2DE9F04F9A
:1021A000044683B0D4F8CC30D0F8B00000934FF0A0
:1021B0007C5112F019F84FF07C510746D4F8B40066
:1021C000D4F8C480D4F8C860D4F8C0A012F00CF8D9
:1021D0004FF07C518146D4F8B80012F005F8414622
:1021E000834607F1004011F0FFFF4946054630469F
:1021F00011F0FAFF0146284611F0ECFE594605465B
:10220000009811F0F1FF01462846D4F8BC5011F0B7
:10221000E1FE294611F0E8FF514611F0DDFE394696
:10222000C4F8C000504611F0DFFF59460190304617
:1022300011F0DAFF019A0146104611F0CDFE494631
:102240000190009811F0D0FF019A0146104611F05C
:10225000C1FE294611F0C8FF414611F0BDFE4946B6
:10226000C4F8C400504611F0BFFF594601904046E3
:1022700011F0BAFF019A0146104611F0ABFE394643
:102280000190009811F0B0FF019A0146104611F03C
:10229000A3FE294611F0A8FF314611F09DFE5946D4
:1022A000C4F8C800504611F09FFF49468246404698
:1022B00011F09AFF0146504611F08EFE39468046D5
:1022C000304611F091FF0146404611F083FE294649
:1022D00011F08AFF009911F07FFEC4F8CC0004F1E0
:1022E000C00003B0BDE8F04F04F024BD10B50446B3
:1022F000FFF79CFB2046094B40F8B03B04F076FB0F
:1023000004F1C00004F02CFC04F1D00004F028FC1F
:102310002046FFF703FF204610BD00BF3CC101006F
:102320002DE9704390F8A33088B01BB990F8A23023
:10233000002B63D000F1C00504462946684604F02E
:1023400065FE04F1740604F12802694604A804F04D
:10235000D1FC04A9304604F009FC304604F0EAFC44
:10236000606F11F097FA0EF061FF11F0DFFD216F41
:1023700011F03AFF11F08EFA804689460EF012FFF6
:1023800011F0D4FD4946064640460EF0C1FEE26F0C
:10239000D4F88030C4F898208946A16FC4F89C30E6
:1023A0008046C4F8941004F1940004F041FB4946BF
:1023B000404611F0BBFD3146C4F88400D4F89400C7
:1023C00011F012FF3146C4F88800D4F8980011F0DB
:1023D0000BFF3146C4F88C00D4F89C0011F004FFC8
:1023E00004F18406C4F89000304604F0A3FC3146A2
:1023F000284604F0D9FB284604F09CFC08B0BDE850
:10240000708300BF2DE9F047D0F8E0300D4690F81A
:10241000A110013384B004469246C0F8E030002990
:102420005CD005F13001B03004F0E6FA04F110069A
:1024300005F140084146304604F11C0705F15009FA
:1024400004F0DAFA3846494604F0D6FA94F8A53092
:1024500095F84C2084F8A420002B48D1D5E90067DA
:10246000D4E92A01301A67EB010111F077FE3349F4
:1024700011F06EFFC4E92A67C4F8BC00002112F015
:102480005BF840BBDAF874304A4641462046FFF715
:1024900017FB94F8A130002B4CD1204604F1C00862
:1024A00004F15407FFF73CFF04F144064046394667
:1024B00004F08EFC4146304604F058FB01233946B7
:1024C0002B722B7605F10C0004F096FA314605F1DB
:1024D0001C0004F04BFB04B0BDE8F08701A804F039
:1024E00085FA01A904F1B00004F086FA9EE7D5E967
:1024F0000089DAF874303A463146C4E92A89204620
:1025000004F1C00904F13808FFF7DAFA04F14406CF
:102510004846414604F0E2FC04F15407494630467F
:1025200004F024FB4146384604F066FA002384F8A0
:10253000A530C3E72046FFF731FEAEE7002474491B
:102540000CF0CEBE704700BF10B5102104460DF050
:102550003DF8204610BD00BF0249034A0160C26039
:10256000704700BF58C101000110013870B50479EF
:102570000CB1012070BD05460E48FFF7E5F90121B9
:10258000E8790DF083F9AE680B490C4802E0172A90
:1025900008D0144631F8023F90FBF3F39E4204F159
:1025A0000102F4D3064B53F8243043F06053EB6040
:1025B000012070BDD888FF1FF6BF0100006CDC024F
:1025C00028C001000148FFF7FDB900BFD888FF1FF0
:1025D000F0B505460846297983B017461C4661B117
:1025E0000A23114600932246089B0CF0B7F9001B02
:1025F000B0FA80F0400903B0F0BD384EEA68F37AD3
:102600001BB372B6F37AD807194609D5DFF8E8E0AC
:10261000F068DEF800100140B161CEF800101946F4
:10262000980709D5DFF8D4E03069DEF80030F17A98
:102630000340F361CEF800304B0705D52849736994
:102640000868034033620B6062B63368D968914210
:1026500007D0244818602449DA6042F080401861AD
:1026600019600021E8790DF00BF9316847F0800717
:102670004FF00043CB624F63CB6A002BFCDA8B6BCD
:1026800084B1089A4FF0004710190024CF624C63C0
:10269000CB6A002BFCDA8B6B02F8013B824201D043
:1026A0003168F3E70121E8790DF0EAF8F37A0B4994
:1026B0001A4683B1D80703D50C4A896911601A46B6
:1026C000990703D50A4BF169F27A1960530702D5CD
:1026D000084B326A1A60012003B0F0BDD888FF1F92
:1026E00088E100E001403F0000003F8000E100E0A1
:1026F00004E100E008E100E080E100E084E100E0C6
:10270000F8B505460846297917461C4651B11A46C0
:102710003946069B0CF0A8F9044600286DD0012428
:102720002046F8BD3A4EEA68F37A1BB372B6F37AE4
:10273000D807194609D5DFF8FCE0F068DEF800108C
:102740000140B161CEF800101946980709D5DFF8AD
:10275000E8E03069DEF80030F17A0340F361CEF84A
:1027600000304B0705D52B49736908680340336275
:102770000B6062B63368D968914207D0264818606A
:102780002649DA6042F08040186119600021E8793A
:102790000DF076F831684FF00043CB624F63C86AA2
:1027A0000028FCDA8B6B6CB1069802194FF00044DC
:1027B00010F8013BCC624B63CB6A002BFCDA8242FF
:1027C0008B6BF5D10121E8790DF05AF8F37A1049B5
:1027D0001A46002BA3D0D80703D5114A8969116086
:1027E0001A46990703D50F4BF169F27A196053071E
:1027F00095D50D4B326A1A6091E7079B1B78002B29
:102800008ED0079A09490A480CF078FA88E700BF89
:10281000D888FF1F88E100E001403F0000003F80B2
:1028200000E100E004E100E008E100E060C1010037
:10283000908DFF1F80E100E084E100E0F8B50546DF
:102840000846297917461E4681B11A4639460CF0CA
:1028500031F9044600286BD1069B1B78002B68D009
:10286000069A354935480CF049FA62E0344CEB6879
:10287000E27A1AB372B6E27AD007114609D5DFF8C8
:10288000DCE0E068DEF800100140A161CEF8001045
:102890001146900709D5DFF8C8E02069DEF800206E
:1028A000E17A0240E261CEF800204A0705D52549C9
:1028B00062690868024022620A6062B62168CA68DA
:1028C0009A4207D020480860204ACB6043F08040FD
:1028D00008610A600021E8790CF0D2FF21684FF00E
:1028E0000043CB624F63C86A0028FCDA4FF0004314
:1028F0008A6BCB624E63CB6A002BFCDA8B6BE87978
:1029000001210CF0BDFFE37A0D491A4683B1D807C7
:1029100003D50F4A896911601A46990703D50D4BF3
:10292000E169E27A1960530702D50B4B226A1A60FB
:1029300001242046F8BD00BF60C10100908DFF1F3B
:10294000D888FF1F88E100E001403F0000003F8081
:1029500000E100E004E100E008E100E080E100E0E7
:1029600084E100E008460CF0B9BF00BF0CF0B8BC31
:1029700010B5064B0360044600F51B7009F018FE05
:102980002046FFF7DFFD204610BD00BFC4DB01007D
:1029900010B5084B0360044600F51B7009F008FEF3
:1029A0002046FFF7CFFD20464FF424710CF00EFEB9
:1029B000204610BDC4DB010038B5044608460D466C
:1029C00012F0DEFF2368024629465B6820469847DE
:1029D000054620460CF07AF9284438BD2DE9F04F21
:1029E0004FF0010885B080F8048004468B4691467C
:1029F0009A46FFF7BBFD002800F0AA80BF4E019663
:102A00000DF10E0700974346752268212046FFF717
:102A1000DFFD054638B19DF80E30712B00F0BE8009
:102A2000682B00F0C480019600970123752269216C
:102A30002046FFF7CDFD054638B19DF80E30712BCD
:102A400000F0BD80682B00F0C7800F220196009730
:102A500001236A212046FFF7BBFDA84A054638B18D
:102A60009DF80E30D72B00F01C81D42B00F0C980CC
:102A70000F220196009701236B212046FFF7A8FD46
:102A80009E4A054638B19DF80E30D72B00F03C81A8
:102A9000D42B00F0D9800196009701230F226A21E0
:102AA0002046FFF795FD054620B19DF80E30D42B4A
:102AB00000F09D800196009701230F226B21204694
:102AC000FFF786FD054620B19DF80E30D42B00F0AF
:102AD000E680019600970123002268212046FFF737
:102AE00077FD054620B19DF80E300F2B00F039819F
:102AF000019600970123002269212046FFF768FD17
:102B0000054620B19DF80E300F2B00F03481019660
:102B100000970123002228212046FFF759FD054692
:102B200020B19DF80E30A02B00F027810196009770
:102B30000123002229212046FFF74AFD054620B146
:102B40009DF80E30A02B00F022812046FFF73AFDC1
:102B5000002609232671A671E3712046FFF706FDC2
:102B600098B1664B01930DF10E030093752201237A
:102B700068212046FFF72CFD054618B19DF80E3060
:102B8000712B2BD02046FFF71DFD5D495D480CF0F1
:102B9000B5F80025284605B0BDE8F08F0622682369
:102BA000CBF800208AF8003089F80080F2E7022292
:102BB000CBF800208AF8003089F80080EAE7062187
:102BC000692201232846CBF800108AF8002089F8F2
:102BD000003005B0BDE8F08F0221F1E7062268233E
:102BE000CBF800208AF8003089F80060D2E7042191
:102BF0006A220123CBF800108AF8002089F80030FF
:102C0000C8E70DF10F080192CDF8008001230F22D3
:102C10001E212046FFF7DCFC18B19DF80F30492B30
:102C200010D00196CDF8008001230F221D212046EF
:102C3000FFF7CEFC00283FF41BAF9DF80F30492B67
:102C40007FF416AF0521D3E70DF10F080192CDF8FF
:102C5000008001230F221D212046FFF7B9FC18B187
:102C60009DF80F30492B10D00196CDF8008001233C
:102C70000F221E212046FFF7ABFC00283FF40BAFCC
:102C80009DF80F30492B7FF406AF05216B220123FD
:102C9000CBF800108AF8002089F800307AE7042188
:102CA000F4E70DF10F080192CDF8008001230F2207
:102CB0001E212046FFF78CFC18B19DF80F30492BE0
:102CC0006FD00196CDF8008001230F221D212046F0
:102CD000FFF77EFC18B19DF80F30492B61D00196AB
:102CE000CDF800800123272219212046FFF770FC30
:102CF000054600283FF4BCAE072179E758F10100F2
:102D000078C10100908DFF1F0DF10F080192CDF8E1
:102D1000008001230F221D212046FFF759FC18B126
:102D20009DF80F30492B3ED00196CDF8008001234D
:102D30000F221E212046FFF74BFC18B19DF80F30E3
:102D4000492B30D00196CDF800800123272219218C
:102D50002046FFF73DFC054600283FF49CAE0721C6
:102D600094E7082168220123CBF800108AF800209C
:102D700089F800300EE7082122E7092128220123E3
:102D8000CBF800108AF8002089F8003002E709210A
:102D900029220123CBF800108AF8002089F800309E
:102DA000F8E6032124E7032170E700BFF0B409220D
:102DB000494BC271192432225021282700254FF097
:102DC0007E568360C0F8A42000230122C0F8A840EA
:102DD000C0F8B81002240421C0F8BC701027446168
:102DE00045658565C56545668566C566456706654D
:102DF000032506660667C0F8B070052603610376F2
:102E00008371C361036280F8243080F8253080F834
:102E1000403080F8783080F8943002714271C0F808
:102E2000AC10C0F8B470C0F8C870C0F8CC700727F8
:102E3000C0F8C050C0F8C450C0F8D040C0F8E4504A
:102E4000C0F8E850C0F80841C0F81441C0F8284163
:102E5000C0F8E060C0F80C61C0F8D420C0F8D81009
:102E6000C0F8DC20C0F8EC10C0F8F030C0F8F43046
:102E7000C0F8F820C0F8FC10C0F80021C0F8041118
:102E8000C0F81021C0F81821C0F81C11C0F820218A
:102E9000C0F82411C0F83021C0F83431C0F838210E
:102EA000C0F83C11C0F84021C0F82C61C0F8446162
:102EB000C0F84851C0F84C51C0F85C41C0F86051AE
:102EC000C0F86441C0F85871C0F85011C0F85431CE
:102ED000C0F86821F0BC704720A10700C1EBC10118
:102EE00070B58D0000242846947016460CF040FA08
:102EF000FC2801D0204670BD681C0CF039FA15285A
:102F0000F8D13446AD1B1C3628190CF031FA04F800
:102F1000010BB442F8D1012070BD00BF0CF0E0B944
:102F20002DE9F041ADF5187D074600F5B672012395
:102F300066A89E4909F076FC98AA9DF89C0112F8B3
:102F4000BC3D689987F8700287F87832C7F8741228
:102F500007F51B7607F2792307F2862012F8011F86
:102F600003F8011B8342F9D16D9BC7F888323046C4
:102F700009F02EFB804666A809F01AFBB8F1000F95
:102F800049D00DF10705002406E00D2814D00A28C9
:102F900012D00134C82C39D0304609F093FAC0B2AF
:102FA000FF2805F8010FF0D1304609F003FB404639
:102FB0000DF5187DBDE8F08102AD00232B552B786F
:102FC000232BDED013F0DF0FDBD034AA66AB7849B9
:102FD000284612F0C3FA02287CD1764934A812F0B0
:102FE00063FB10B3744934A812F05EFB002862D072
:102FF000724934A812F058FBE0B9714966A812F082
:1030000053FBB0FA80F040093871BAE702AD0023F3
:1030100085F8C730D3E73B683846DB689847804679
:1030200040460DF5187DBDE8F08166A811F04EFC14
:103030003861A6E7634934A812F036FB00283FD078
:10304000614934A812F030FB00283ED05F4934A813
:1030500012F02AFB002848D05D4934A812F024FB66
:10306000002847D05B4934A812F01EFB002800F06E
:103070009780594934A812F017FB002800F08B8084
:10308000564934A812F010FB00287FD0544934A8C8
:1030900012F00AFB002873D0524934A812F004FB46
:1030A00068BB474966A812F0FFFAB0FA80F0400901
:1030B00087F8250065E766A811F008FC786160E7ED
:1030C00066A811F003FC78715BE766A811F0FEFBBF
:1030D000B87156E72A46444944480BF00FFE304683
:1030E00009F068FA4FF0000861E766A811F0EEFBFE
:1030F000F87146E766A811F0E9FBB86041E73C4982
:1031000034A812F0D1FA002800F08885394934A893
:1031100012F0CAFA002800F07885374934A812F076
:10312000C3FA002800F06885344934A812F0BCFACC
:10313000002800F05885324934A812F0B5FA00286A
:1031400000F048852F4934A812F0AEFA002800F0AC
:1031500038852D4934A812F0A7FA002800F0B9806C
:103160002A4934A812F0A0FA002851D1144966A8BF
:1031700012F09AFAB0FA80F0400987F8400000E7B0
:1031800066A811F0A3FB87F82400FAE666A811F000
:103190009DFB3862F5E666A811F098FBF861F0E651
:1031A00066A811F093FB3876EBE600BF5C9CFF1F2E
:1031B000ACC10100D8C10100E0C10100ECC10100B7
:1031C000F8C1010000C2010008C2010010C20100E4
:1031D0001CC2010028C2010038C2010048C201001F
:1031E00058C201006CC20100B8C10100908DFF1FE0
:1031F0007CC2010090C20100A0C20100B0C2010067
:10320000C0C20100D0C20100E0C20100F8C201004A
:10321000594934A812F048FA002800F0C9845749E7
:1032200034A812F041FA002800F0B984544934A8B7
:1032300012F03AFA002800F0A984524934A812F09A
:1032400033FA002800F099844F4934A812F02CFA80
:10325000002800F089844D4934A812F025FA00288E
:1032600000F079844A4934A812F01EFA002800F0D0
:103270006984484934A812F017FA002800F05984EC
:10328000454934A812F010FA002800F04984434957
:1032900034A812F009FA002800F03984404934A813
:1032A00012F002FA00285ED03E4934A812F0FCF970
:1032B000002850D03C4934A812F0F6F988B93B49AF
:1032C00066A812F0F1F9B0FA80F0400987F87800AA
:1032D00057E601AA364966A812F040F9019B7B67C0
:1032E0004FE6344934A812F0DFF9002800F00684D4
:1032F000314934A812F0D8F9002800F0F5832F499D
:1033000034A812F0D1F9002800F0E4832C4934A845
:1033100012F0CAF9002800F0D3832A4934A812F029
:10332000C3F9002800F03B82274934A812F0BCF909
:10333000002800F02A82254934A812F0B5F90028A7
:1033400046D11A4966A812F0AFF9B0FA80F04009E8
:1033500087F8940015E601AA154966A812F0FEF850
:10336000019B3B670DE601AA114966A812F0F6F829
:10337000019BFB6605E600BF14C3010028C30100E2
:103380003CC3010050C3010064C3010078C30100C5
:103390008CC30100A0C30100B4C30100C8C3010075
:1033A000DCC30100F0C3010004C40100F8C1010046
:1033B0008CC2010014C4010024C4010034C4010003
:1033C00044C4010054C4010064C4010074C4010079
:1033D000B14934A812F068F9002800F05C83AF49C5
:1033E00034A812F061F9002800F04B83AC4934A8EE
:1033F00012F05AF9002800F03A83AA4934A812F0D2
:1034000053F9002800F02C83A74934A812F04CF996
:10341000002800F01E83A54934A812F045F90028C1
:1034200000F01083A24934A812F03EF9002800F001
:103430000283A04934A812F037F9002800F0F48282
:103440009D4934A812F030F9002800F0E6829B492B
:1034500034A812F029F9002800F0D882984934A83D
:1034600012F022F9002800F0CA82964934A812F01E
:103470001BF9002800F0BC82934934A812F014F91B
:10348000002800F0AE82914934A812F00DF900280E
:1034900000F0A0828E4934A812F006F9002800F04E
:1034A00092828C4934A812F0FFF8002800F0848240
:1034B000894934A812F0F8F8002800F0768287498C
:1034C00034A812F0F1F8002800F06882844934A88A
:1034D00012F0EAF8002800F05A82824934A812F06B
:1034E000E3F8002800F04C827F4934A812F0DCF8A1
:1034F000002800F03E827D4934A812F0D5F800285B
:1035000000F030827A4934A812F0CEF8002800F09A
:103510002282784934A812F0C7F8002800F01482FB
:10352000754934A812F0C0F8002800F006827349EB
:1035300034A812F0B9F8002800F0F881704934A8D6
:1035400012F0B2F8002800F0EA816E4934A812F0B7
:10355000ABF8002800F0DC816B4934A812F0A4F825
:10356000002800F0CE81694934A812F09DF80028A7
:1035700000F0C081664934A812F096F8002800F0E7
:10358000B281644934A812F08FF8002800F0A481B9
:10359000614934A812F088F8002800F096815F494C
:1035A00034A812F081F8002800F088815C4934A822
:1035B00012F07AF8002800F07A815A4934A812F003
:1035C00073F8002800F06C81574934A812F06CF8A9
:1035D000002800F05E81554934A812F065F80028F3
:1035E00000F05081524934A812F05EF8002800F033
:1035F0004281504934A812F057F8002800F0348175
:103600004D4934A812F050F8002800F026814B49AB
:1036100034A812F049F8002800F01881484934A86D
:1036200012F042F8002800F00A81464934A812F04E
:103630003BF8002800F0FC80434934A812F034F82D
:10364000002800F0EE80414934A812F02DF800283F
:1036500000F0E0803E4934A812F026F8002800F07F
:10366000D2803C4934A812F01FF8002800F0C48032
:10367000394934A812F018F8002800F0B68037490C
:1036800034A812F011F8002800F0A880344934A8BA
:1036900012F00AF866E000BF84C4010090C4010083
:1036A0009CC40100A8C40100C4C40100E0C401001E
:1036B000F4C4010004C5010014C5010030C50100B7
:1036C0004CC501005CC501006CC501007CC5010052
:1036D0008CC50100A8C50100BCC50100D0C5010012
:1036E000E4C5010000C6010014C6010028C601009F
:1036F00044C601005CC6010078C601008CC601000A
:10370000A0C60100B4C60100D0C60100E8C6010091
:1037100008C7010020C701003CC7010054C70100D1
:103720006CC7010080C70100A0C70100B8C7010035
:10373000D8C70100F0C7010008C8010018C801007F
:1037400028C8010038C8010050C8010060C8010045
:1037500070C801008CC80100A0C80100B8C80100F1
:10376000C8C80100002832D0D04934A811F09CFF0D
:1037700030B334A8CE4911F097FFD0B966A811F044
:10378000A5F8C7F86801FFF7FCBB01AAC94966A8FC
:1037900011F0E4FE019BC7F89030FFF7F2BB01AADD
:1037A000C44966A811F0DAFE019BC7F88C30FFF718
:1037B000E8BB2A46C049C1480BF0A0FAFFF7E1BBBD
:1037C00066A811F083F8C7F86401FFF7DABB66A8B2
:1037D00011F07CF8C7F86001FFF7D3BB66A811F0C1
:1037E00075F8C7F85C01FFF7CCBB66A811F06EF85E
:1037F000C7F85801FFF7C5BB66A811F067F8C7F80E
:103800005401FFF7BEBB66A811F060F8C7F850017D
:10381000FFF7B7BB66A811F059F8C7F84C01FFF7DE
:10382000B0BB66A811F052F8C7F84801FFF7A9BB72
:1038300066A811F04BF8C7F84401FFF7A2BB66A8D1
:1038400011F044F8C7F83801FFF79BBB66A811F0E8
:103850003DF8C7F83C01FFF794BB66A811F036F8B5
:10386000C7F84001FFF78DBB66A811F02FF8C7F825
:103870003401FFF786BB66A811F028F8C7F83001BD
:10388000FFF77FBB66A811F021F8C7F82C01FFF7FE
:1038900078BB66A811F01AF8C7F82801FFF771BBCA
:1038A00066A811F013F8C7F82401FFF76ABB66A8F1
:1038B00011F00CF8C7F81801FFF763BB66A811F008
:1038C00005F8C7F81C01FFF75CBB66A810F0FEFF07
:1038D000C7F82001FFF755BB66A810F0F7FFC7F83F
:1038E0001401FFF74EBB66A810F0F0FFC7F81001F7
:1038F000FFF747BB66A810F0E9FFC7F80C01FFF718
:1039000040BB66A810F0E2FFC7F80801FFF739BB1B
:1039100066A810F0DBFFC7F80401FFF732BB66A80A
:1039200010F0D4FFC7F8F800FFF72BBB66A810F023
:10393000CDFFC7F8FC00FFF724BB66A810F0C6FF58
:10394000C7F80001FFF71DBB66A810F0BFFFC7F85E
:10395000F400FFF716BB66A810F0B8FFC7F8F00038
:10396000FFF70FBB66A810F0B1FFC7F8EC00FFF738
:1039700008BB66A810F0AAFFC7F8E800FFF701BB74
:1039800066A810F0A3FFC7F8E400FFF7FABA66A82C
:1039900010F09CFFC7F8E000FFF7F3BA66A810F03C
:1039A00095FFC7F8D400FFF7ECBA66A810F08EFFB9
:1039B000C7F8D800FFF7E5BA66A810F087FFC7F888
:1039C000DC00FFF7DEBA66A810F080FFC7F8D00071
:1039D000FFF7D7BA66A810F079FFC7F8CC00FFF759
:1039E000D0BA66A810F072FFC7F8C800FFF7C9BACE
:1039F00066A810F06BFFC7F8C400FFF7C2BA66A84C
:103A000010F064FFC7F8C000FFF7BBBA66A810F05B
:103A10005DFFC7F8BC00FFF7B4BA66A810F056FF08
:103A2000C7F8B800FFF7ADBA66A810F04FFFC7F8A7
:103A3000B400FFF7A6BA66A810F048FFC7F8B000B8
:103A4000FFF79FBA66A810F041FFC7F8AC00FFF778
:103A500098BA66A810F03AFFC7F8A800FFF791BA25
:103A600066A810F033FFC7F8A400FFF78ABA01AACE
:103A7000104966A811F072FD019BC7F8A030FFF74E
:103A800080BA01AA0B4966A811F068FD019BC7F82E
:103A90009C30FFF776BA01AA064966A811F05EFDD0
:103AA000019BC7F89830FFF76CBA00BFE0C801006F
:103AB000F0C801008CC2010000C90100908DFF1FF9
:103AC00001AA5B4966A811F049FD019BC7F888303F
:103AD000FFF757BA01AA564966A811F03FFD019BAE
:103AE000C7F88430FFF74DBA01AA514966A811F012
:103AF00035FD019BC7F88030FFF743BA01AA4C4956
:103B000066A811F02BFD019BFB67FFF73ABA01AAEB
:103B1000474966A811F022FD019BBB66FFF731BA49
:103B200001AA434966A811F019FD019B7B66FFF7C6
:103B300028BA01AA3E4966A811F010FD019B3B6618
:103B4000FFF71FBA01AA3A4966A811F007FD019BC9
:103B5000FB65FFF716BA01AA354966A811F0FEFC0D
:103B6000019BBB65FFF70DBA01AA314966A811F0A8
:103B7000F5FC019B7B65FFF704BA01AA2C4966A8F6
:103B800011F0ECFC019B3B65FFF7FBB901AA28494A
:103B900066A811F0E3FC019BFB64FFF7F2B901AAF0
:103BA000234966A811F0DAFC019BBB64FFF7E9B971
:103BB00001AA1F4966A811F0D1FC019B7B64FFF7A5
:103BC000E0B901AA1A4966A811F0C8FC019BFB6381
:103BD000FFF7D7B901AA164966A811F0BFFC019BEF
:103BE000BB63FFF7CEB901AA114966A811F0B6FC74
:103BF000019B7B63FFF7C5B901AA0D4966A811F0C7
:103C0000ADFC019B3B63FFF7BCB901AA084966A85C
:103C100011F0A4FC019BFB62FFF7B3B901AA0449B0
:103C200066A811F09BFC019BBB62FFF7AAB900BF1D
:103C30008CC20100F0B589B00446FFF7B7F890F8E0
:103C40008C1261B980F8251001AAFFF747F918B165
:103C50009DF80630012B06D0012009B0F0BDFFF71A
:103C60005FF909B0F0BD029F039E049D0598069977
:103C7000079A84F82530A762E66225636063A16332
:103C8000E263E9E770B504460D46FEF765FC2046A1
:103C9000284B40F8283B02F0A9FE04F1340002F062
:103CA000A5FE04F1440002F0A1FE04F17C0002F044
:103CB0009DFE04F1880002F099FE04F1980002F0E4
:103CC00095FE04F51B7008F065FC284611F058FEBF
:103CD000C82801D82B782BBB174918480BF00EF8D1
:103CE000174B07CB04F5B6751E78C4F86C012E731C
:103CF0006960AA6001210A200BF0C8FD0A21114861
:103D000008F0F2FC38B1012384F88C322046FFF72A
:103D100091FF204670BD84F88C022046FFF78AFF91
:103D2000204670BD2A46084904F5B67011F0F0FB34
:103D3000E0E700BFC4DB010028C90100908DFF1F30
:103D400058C901005C9CFF1F68C9010070B500F5EF
:103D50001B74084616460D4611F012FE294602460F
:103D6000204608F09DFB20460122064908F098FBFA
:103D7000314620460BF010F82046BDE870400AF0AE
:103D8000A5BF00BF74C9010070B500F51B7482B0F7
:103D9000084616460D4611F0F3FD29460246204618
:103DA00008F07EFB01222046094908F079FB3046E5
:103DB0000FF070FD022502460B46009520460AF0E2
:103DC000F3FF204602B0BDE870400AF07FBF00BF9D
:103DD00074C9010070B500F51B74084616460D46FF
:103DE00011F0CEFD29460246204608F059FB204638
:103DF00001220C4908F054FB4EB9204605220A491D
:103E000008F04EFB2046BDE870400AF05FBF204638
:103E10000422064908F044FB2046BDE870400AF041
:103E200055BF00BF74C9010078C90100F8C1010085
:103E3000F0B590F88C3289B005463BBB90F8253040
:103E4000066B446BD0F828E0C76AEA6B806B8DF88C
:103E50000230FC21152303960494CDF804E06D464E
:103E60000297059006928DF800108DF801306C468F
:103E70000DF11B0601E014F8011F601B0BF092FA14
:103E8000B442F8D10126304609B0F0BD00F5B67451
:103E90002146D74808F03AFD224668461323D44904
:103EA00008F0C0FC08AA029B12F8140D9DF804103B
:103EB00085F87802C5F8743285F8701205F51B7420
:103EC00005F2792305F2862012F8011F03F8011B81
:103ED0009842F9D1079BC5F88832204608F078FB54
:103EE0000646684608F064FB002E02F0E7840222D2
:103EF000C049204608F0D4FABF492046FEF75CFDD1
:103F00000222BC49204608F0CBFABC492046FEF705
:103F100053FD0222B749204608F0C2FAB8492046AC
:103F2000FEF74AFD20460AF0D1FE0222B1492046A2
:103F300008F0B6FAB3492046FEF73EFD0222AD492D
:103F4000204608F0ADFA0022AC49204608F0A8FA55
:103F500020460AF0BBFE20460AF0B8FE0222A54920
:103F6000204608F09DFA0B22A749204608F098FA4F
:103F700020460AF0ABFE02229E49204608F090FA45
:103F80001322A249204608F08BFA20460AF09EFE32
:103F900002229849204608F083FA38229C4920469C
:103FA00008F07EFA20460AF091FE0222914920464E
:103FB00008F076FA19229749204608F071FA20464F
:103FC0000AF084FE02228B49204608F069FA1B227F
:103FD0009149204608F064FA20460AF077FE022252
:103FE0008449204608F05CFA1D228C49204608F0DE
:103FF00057FA20460AF06AFE02227E49204608F05F
:104000004FFA11228649204608F04AFA20460AF063
:104010005DFE02227749204608F042FA19228149C2
:10402000204608F03DFA20460AF050FE022271496F
:10403000204608F035FA1E227B49204608F030FA67
:1040400020460AF043FE2A6978492846FFF77EFE9B
:1040500020460AF03BFE02226649204608F020FA7C
:1040600000226649204608F01BFA20460AF02EFE80
:1040700002226049204608F013FA13226C492046B8
:1040800008F00EFA20460AF021FE02225949204685
:1040900008F006FA3B226749204608F001FA20465C
:1040A0000AF014FE02225349204608F0F9F91322BF
:1040B0006149204608F0F4F920460AF007FE022282
:1040C0004C49204608F0ECF90A225C49204608F0E9
:1040D000E7F920460AF0FAFD6A6959492846FFF7D0
:1040E00035FE20460AF0F2FD02224249204608F041
:1040F000D7F942492046FEF75FFC02223D4920469F
:1041000008F0CEF94F492046FEF756FC2A794E4971
:104110002846FFF75FFE20460AF0D8FD0222354907
:10412000204608F0BDF935492046FEF745FC02223D
:104130003049204608F0B4F944492046FEF73CFCDB
:104140006A7943492846FFF701FE20460AF0BEFD82
:1041500002222849204608F0A3F928492046FEF704
:104160002BFC02222349204608F09AF939492046BF
:10417000FEF722FCAA7938492846FFF7E7FD2046DA
:104180000AF0A4FD02221B49204608F089F91B49C8
:104190002046FEF711FC02221649204608F080F95D
:1041A0002E492046FEF708FCEA792D492846FFF7FC
:1041B000CDFD20460AF08AFD02220E49204608F075
:1041C0006FF90E492046FEF7F7FB02220949204607
:1041D00008F066F923492046FEF7EEFBAA6822495B
:1041E0002846FFF7B3FD20460AF070FD3EE000BF11
:1041F0005C9CFF1F70C90100A8C9010058F10100B3
:10420000F0C9010008CA01001CCA010028CA010047
:104210003CCA010078CA010094CA0100B0CA01007A
:10422000D0CA0100E4CA010000CB0100D8C10100DE
:1042300020CB010034CB010070CB010084CB010006
:10424000E0C1010090CB0100ECC10100BCCB01003A
:1042500000C20100D8CB010008C20100F4CB01006C
:1042600010C2010014CC01001CC201000222CB4983
:10427000204608F015F9CA492046FEF79DFB0222A8
:10428000C649204608F00CF9C6492046FEF794FBC3
:104290002A7EC5492846FFF759FD20460AF016FD3B
:1042A0000222BE49204608F0FBF8BD492046FEF731
:1042B00083FB0222B949204608F0F2F8BB492046A8
:1042C000FEF77AFBEA69BA492846FFF73FFD204628
:1042D0000AF0FCFC0222B149204608F0E1F8B54999
:1042E0002046FEF769FB0222AC49204608F0D8F8C8
:1042F000B1492046FEF760FB0222A849204608F09B
:10430000CFF8AE492046FEF757FB0222A3492046CC
:1043100008F0C6F8AA492046FEF74EFB02229F4944
:10432000204608F0BDF8A7492046FEF745FB0222CB
:104330009A49204608F0B4F8A3492046FEF73CFB12
:1043400002229649204608F0ABF8A0492046FEF725
:1043500033FB2A6A9E492846FFF7F8FC20460AF0FC
:10436000B5FC02228D49204608F09AF88C49204677
:10437000FEF722FB02228949204608F091F8954970
:104380002046FEF719FB95F8242093492846FFF7AD
:10439000DDFC20460AF09AFC02228049204608F003
:1043A0007FF88E492046FEF707FB02227B49204614
:1043B00008F076F87A492046FEF7FEFA20460AF021
:1043C00085FC02227549204608F06AF88449204697
:1043D000FEF7F2FA95F8252082492846FFF7FAFC05
:1043E000AA6A81492846FFF7CFFCEA6A7F49284636
:1043F000FFF7CAFC2A6B7E492846FFF7C5FC6A6BAB
:104400007C492846FFF7C0FCAA6B7B492846FFF78A
:10441000BBFCEA6B79492846FFF7B6FC20460AF058
:1044200055FC02225D49204608F03AF86B492046C7
:10443000FEF7C2FA02225949204608F031F85849DD
:104440002046FEF7B9FA20460AF040FC0222534902
:10445000204608F025F86A492046FEF7ADFA022208
:104460004E49204608F01CF866492046FEF7A4FA9B
:104470006A6F65492846FFF787FC20460AF026FC4C
:1044800002224649204608F00BF854492046FEF720
:1044900093FA02224149204608F002F8404920469A
:1044A000FEF78AFA20460AF011FC02223B49204618
:1044B00007F0F6FF55492046FEF77EFA95F84020B2
:1044C00053492846FFF786FC6A6C52492846FFF795
:1044D0005BFCAA6C50492846FFF756FCEA6C4F4932
:1044E0002846FFF751FC2A6D4D492846FFF74CFC42
:1044F0006A6D4C492846FFF747FCAA6D4A49284691
:10450000FFF742FCEA6D49492846FFF73DFC2A6E59
:1045100047492846FFF738FC6A6E46492846FFF7A8
:1045200033FCAA6E44492846FFF72EFCEA6E434945
:104530002846FFF729FC2A6F41492846FFF724FC4B
:1045400020460AF0C3FB02221449204607F0A8FFC8
:1045500022492046FEF730FA02221049204607F091
:104560009FFF0F492046FEF727FA20460AF0AEFBD0
:1045700002220A49204607F093FF32492046FEF7FF
:104580001BFA95F8782030492846FFF723FCEA6F9C
:104590002E492846FFF7F8FB5AE000BF70C901001A
:1045A00058F1010024CC010028C2010064CC0100B4
:1045B00038C2010090CC010028CA0100A8CC01003B
:1045C000D0CC0100E0CC0100F0CC010000CD010016
:1045D00048C2010010CD010058C20100A8C9010065
:1045E00058CD01006CC201007CC2010090C20100E4
:1045F000A0C20100B0C20100C0C20100D0C20100CF
:104600006CCD010088CD0100E0C20100D4CD0100D5
:10461000F8C2010014C3010028C301003CC301001B
:1046200050C3010064C3010078C301008CC30100C2
:10463000A0C30100B4C30100C8C30100DCC3010072
:10464000F0C30100F4CD010004C4010014C4010052
:10465000D5F88020D4492846FFF796FBD5F884206A
:10466000D2492846FFF790FBD5F88820D049284644
:10467000FFF78AFBD5F88C20CE492846FFF784FB4C
:10468000D5F89020CC492846FFF77EFB20460AF05B
:104690001DFB0222C949204607F002FFC8492046F7
:1046A000FEF78AF90222C549204607F0F9FEC549FE
:1046B0002046FEF781F920460AF008FB0222BF4996
:1046C000204607F0EDFEC0492046FEF775F995F843
:1046D0009420BE492846FFF77DFBD5F89820BC49B9
:1046E0002846FFF751FBD5F89C20BA492846FFF72A
:1046F0004BFBD5F8A020B8492846FFF745FB2046DC
:104700000AF0E4FA0222AD49204607F0C9FEAC499E
:104710002046FEF751F90222A849204607F0C0FEC4
:10472000A8492046FEF748F90222A449204607F08E
:10473000B7FEAA492046FEF73FF902229F492046CC
:1047400007F0AEFE9F492046FEF736F920460AF0F4
:10475000BDFA02229949204607F0A2FEA049204650
:10476000FEF72AF9D5F8A4209E492846FFF7EEFA6D
:1047700020460AF0ABFA02229049204607F090FE4C
:1047800090492046FEF718F902228C49204607F08E
:1047900087FE95492046FEF70FF9D5F8A8209349E2
:1047A0002846FFF7D3FA20460AF090FA02228349FE
:1047B000204607F075FE83492046FEF7FDF80222E9
:1047C0007E49204607F06CFE89492046FEF7F4F842
:1047D00002227A49204607F063FE86492046FEF70A
:1047E000EBF802227549204607F05AFE824920461E
:1047F000FEF7E2F802227149204607F051FE7F4998
:104800002046FEF7D9F802226C49204607F048FE00
:104810007B492046FEF7D0F802226849204607F07F
:104820003FFE78492046FEF7C7F80222634920463A
:1048300007F036FE74492046FEF7BEF802225F49B3
:10484000204607F02DFE71492046FEF7B5F8D5F851
:10485000AC206F492846FFF779FA20460AF036FA6D
:1048600002225649204607F01BFE56492046FEF715
:10487000A3F802225149204607F012FE654920465E
:10488000FEF79AF802224D49204607F009FE6249D8
:104890002046FEF791F802224849204607F000FE24
:1048A0005E492046FEF788F802224449204607F078
:1048B000F7FD5B492046FEF77FF802223F4920467C
:1048C00007F0EEFD57492046FEF776F8D5F8B02000
:1048D00055492846FFF73AFA20460AF0F7F902222E
:1048E0003649204607F0DCFD36492046FEF764F8DD
:1048F00002223249204607F0D3FD4C492046FEF7FC
:104900005BF802222D49204607F0CAFD484920469F
:10491000FEF752F802222949204607F0C1FD454919
:104920002046FEF749F802222449204607F0B8FD48
:1049300041492046FEF740F802222049204607F070
:10494000AFFD3E492046FEF737F8D5F8B4203C4984
:104950002846FFF7FBF920460AF0B8F9022217496A
:10496000204607F09DFD16492046FEF725F8022255
:104970001249204607F094FD12492046FEF71CF824
:1049800002220E49204607F08BFD2E492046FEF7F5
:1049900013F802220949204607F082FD0949204602
:1049A000FEF70AF850E000BF24C4010034C401003F
:1049B00044C4010054C4010064C4010070C9010072
:1049C000A8C9010058F1010008CE010074C401001B
:1049D00084C4010090C401009CC4010020CE0100E9
:1049E00034CE0100A8C4010060CE0100C4C401009F
:1049F00090CE0100B0CE0100D0CE0100F0CE01007B
:104A000010CF010030CF010050CF010070CF010066
:104A1000E0C401008CCF0100A8CF0100CCCF010081
:104A2000F0CF010014D00100F4C4010038D001001F
:104A300054D0010064D0010074D0010084D0010082
:104A400004C5010094D0010020460AF03FF902227B
:104A5000D249204607F024FDD1492046FDF7ACFF9E
:104A6000D5F8B820CF492846FFF770F920460AF05C
:104A70002DF90222C949204607F012FDCA492046F5
:104A8000FDF79AFF0222C549204607F009FDC749F4
:104A90002046FDF791FFD5F8BC20C5492846FFF711
:104AA00055F920460AF012F90222BC49204607F0C7
:104AB000F7FCBD492046FDF77FFF0222B74920469B
:104AC00007F0EEFCBB492046FDF776FF0222B34912
:104AD000204607F0E5FCB8492046FDF76DFF0222AD
:104AE000AE49204607F0DCFCB4492046FDF764FFE0
:104AF0000222AA49204607F0D3FCB1492046FDF71F
:104B00005BFF0222A549204607F0CAFCAD492046BA
:104B1000FDF752FF0222A149204607F0C1FCAA4935
:104B20002046FDF749FF02229C49204607F0B8FCC9
:104B3000A6492046FDF740FF02229849204607F08B
:104B4000AFFCA3492046FDF737FF022293492046D8
:104B500007F0A6FC9F492046FDF72EFF02228F4951
:104B6000204607F09DFC9C492046FDF725FFD5F81F
:104B7000C0209A492846FFF7E9F820460AF0A6F82F
:104B800002228649204607F08BFC87492046FDF724
:104B900013FF02228149204607F082FC90492046FB
:104BA000FDF70AFF02227D49204607F079FC8D4976
:104BB0002046FDF701FF02227849204607F070FCED
:104BC00089492046FDF7F8FE02227449204607F085
:104BD00067FC86492046FDF7EFFE02226F4920461A
:104BE00007F05EFC82492046FDF7E6FE02226B4993
:104BF000204607F055FC7F492046FDF7DDFE0222E6
:104C00006649204607F04CFC7B492046FDF7D4FE60
:104C100002226249204607F043FC78492046FDF70E
:104C2000CBFE02225D49204607F03AFC744920463B
:104C3000FDF7C2FED5F8C42072492846FFF786F872
:104C400020460AF043F802225449204607F028FC87
:104C500055492046FDF7B0FE02225049204607F094
:104C60001FFC69492046FDF7A7FE02224B4920465A
:104C700007F016FC65492046FDF79EFE02224749D3
:104C8000204607F00DFC62492046FDF795FE022202
:104C90004249204607F004FC5E492046FDF78CFEA1
:104CA00002223E49204607F0FBFB5B492046FDF708
:104CB00083FED5F8C82059492846FFF747F8204613
:104CC0000AF004F802223549204607F0E9FB36498C
:104CD0002046FDF771FE02223049204607F0E0FB36
:104CE0004F492046FDF768FE02222C49204607F076
:104CF000D7FB4C492046FDF75FFE0222274920469C
:104D000007F0CEFB48492046FDF756FE0222234914
:104D1000204607F0C5FB45492046FDF74DFE02221F
:104D20001E49204607F0BCFB41492046FDF744FEE2
:104D3000D5F8CC203F492846FFF708F8204609F06F
:104D4000C5FF02221549204607F0AAFB3A49204632
:104D5000FDF732FE02221149204607F0A1FB12495D
:104D60002046FDF729FE02220C49204607F098FB59
:104D700032492046FDF720FE204609F0A7FF022217
:104D80000649204607F08CFB07492046FDF714FE34
:104D900002220249204607F083FB51E070C901005E
:104DA000A8D0010014C5010058F1010060CE010037
:104DB00030C50100ECD0010004D1010024D1010074
:104DC00044D1010064D1010080D101009CD10100D7
:104DD000B8D10100D4D10100F4D101004CC50100CB
:104DE00010D201002CD201004CD201006CD2010083
:104DF0008CD20100A8D20100C8D20100E8D2010083
:104E000008D301005CC501008CCF0100A8CF0100D0
:104E1000CCCF0100F0CF010014D001006CC501001F
:104E200038D0010054D0010064D0010074D00100DA
:104E300084D001007CC50100A8C9010024D3010071
:104E4000D2492046FDF7B8FD0222D149204607F09D
:104E500027FBD0492046FDF7AFFD0222CC49204672
:104E600007F01EFBCC492046FDF7A6FD0222C849EB
:104E7000204607F015FBC9492046FDF79DFD02229B
:104E8000C349204607F00CFBC5492046FDF794FDB9
:104E90000222BF49204607F003FBC2492046FDF726
:104EA0008BFD0222BA49204607F0FAFABE49204695
:104EB000FDF782FD0222B649204607F0F1FABB4910
:104EC0002046FDF779FDD5F8D020B9492846FEF7F0
:104ED0003DFF204609F0FAFE0222AD49204607F0C8
:104EE000DFFAB4492046FDF767FD0222A8492046B3
:104EF00007F0D6FA1822B049204607F0D1FA20462A
:104F000009F0E4FE0222A249204607F0C9FAAB49A3
:104F10002046FDF751FD02229D49204607F0C0FAC8
:104F2000A7492046FDF748FD02229949204607F08F
:104F3000B7FAA4492046FDF73FFDD5F8DC20A24989
:104F40002846FEF703FF204609F0C0FE02229049E2
:104F5000204607F0A5FA97492046FDF72DFD0222CD
:104F60008B49204607F09CFA98492046FDF724FD1E
:104F700002228749204607F093FA95492046FDF71B
:104F80001BFDD5F8D82093492846FEF7DFFE2046C2
:104F900009F09CFE02227E49204607F081FA8549ED
:104FA0002046FDF709FD02227949204607F078FAEC
:104FB00089492046FDF700FD02227549204607F089
:104FC0006FFA86492046FDF7F7FCD5F8D4208449CE
:104FD0002846FEF7BBFE204609F078FE02226C4907
:104FE000204607F05DFA7F492046FDF7E5FC0222E6
:104FF0006749204607F054FA7B492046FDF7DCFC60
:1050000002226349204607F04BFA78492046FDF713
:10501000D3FC02225E49204607F042FA744920463A
:10502000FDF7CAFC02225A49204607F039FA7149B5
:105030002046FDF7C1FC02225549204607F030FA10
:105040006D492046FDF7B8FC02225149204607F081
:1050500027FA6A492046FDF7AFFC02224C49204658
:1050600007F01EFA66492046FDF7A6FC02224849D1
:10507000204607F015FA63492046FDF79DFC022201
:105080004349204607F00CFA5F492046FDF794FC9F
:1050900002223F49204607F003FA5C492046FDF70B
:1050A0008BFCD5F8E0205A492846FEF74FFE2046F3
:1050B00009F00CFE02223649204607F0F1F93D497D
:1050C0002046FDF779FC02223149204607F0E8F935
:1050D00050492046FDF770FC02222D49204607F07A
:1050E000DFF94D492046FDF767FC0222284920469A
:1050F00007F0D6F949492046FDF75EFC0222244913
:10510000204607F0CDF946492046FDF755FC02221E
:105110001F49204607F0C4F942492046FDF74CFCE0
:1051200002221B49204607F0BBF93F492046FDF704
:1051300043FCD5F8E4203D492846FEF707FE20460B
:1051400009F0C4FD02221249204607F0A9F91949C5
:105150002046FDF731FC02220D49204607F0A0F958
:1051600033492046FDF728FC02220949204607F072
:1051700097F930492046FDF71FFC022204492046DA
:1051800007F08EF92C49204658E000BF40D30100BB
:1051900070C9010054D3010064D3010070D3010031
:1051A0007CD301008CD301009CD30100ACD301005F
:1051B0008CC5010058F101008CCF0100BCD3010067
:1051C000DCD30100FCD30100A8C501001CD4010000
:1051D00038D40100BCC5010068D401007CD40100B2
:1051E000D0C50100ACD40100C4D40100D4D4010066
:1051F000E4D40100F4D4010000D501000CD5010075
:105200001CD501002CD501003CD501004CD5010076
:10521000E4C5010038D001005CD501006CD5010067
:105220007CD501008CD501009CD5010000C6010091
:1052300010D20100ACD50100B8D50100FDF7BCFBD0
:105240000222D549204607F02BF9D4492046FDF724
:10525000B3FB0222D049204607F022F9D04920466C
:10526000FDF7AAFBD5F8E820CE492846FEF76EFDEB
:10527000204609F02BFD0222C749204607F010F90D
:10528000C9492046FDF798FB0222C349204607F092
:1052900007F9C6492046FDF78FFB0222BE4920468A
:1052A00007F0FEF8C2492046FDF786FB0222BA4904
:1052B000204607F0F5F8BF492046FDF77DFB0222A6
:1052C000B549204607F0ECF8BB492046FDF774FBD2
:1052D0000222B149204607F0E3F8B8492046FDF71D
:1052E0006BFB0222AC49204607F0DAF8B4492046AD
:1052F000FDF762FB0222A849204607F0D1F8B14928
:105300002046FDF759FBD5F8EC20AF492846FEF7BB
:105310001DFD204609F0DAFC02229F49204607F0D5
:10532000BFF8A1492046FDF747FB02229A492046D3
:1053300007F0B6F8A5492046FDF73EFB0222964944
:10534000204607F0ADF8A2492046FDF735FB0222C2
:105350009149204607F0A4F89E492046FDF72CFB12
:1053600002228D49204607F09BF89B492046FDF715
:1053700023FB02228849204607F092F897492046ED
:10538000FDF71AFBD5F8F02095492846FEF7DEFC1C
:10539000204609F09BFC02227F49204607F080F856
:1053A00090492046FDF708FB02227B49204607F082
:1053B00077F87D492046FDF7FFFA0222764920461C
:1053C00007F06EF888492046FDF7F6FA0222724986
:1053D000204607F065F874492046FDF7EDFA2046AF
:1053E00009F074FC02226C49204607F059F87F4905
:1053F0002046FDF7E1FA02226749204607F050F8FF
:105400007B492046FDF7D8FA02226349204607F07F
:1054100047F878492046FDF7CFFA02225E49204638
:1054200007F03EF874492046FDF7C6FA02225A49B1
:10543000204607F035F871492046FDF7BDFAD5F84A
:10544000F4206F492846FEF781FC204609F03EFC17
:1054500002225149204607F023F853492046FDF720
:10546000ABFA02224C49204607F01AF8654920465B
:10547000FDF7A2FA02224849204607F011F81D2242
:105480006149204607F00CF8204609F01FFC022273
:105490004149204607F004F81D225C49204606F0E9
:1054A000FFFF204609F012FC02223B49204606F08D
:1054B000F7FF1E225649204606F0F2FF204609F06B
:1054C00005FCD5F8002153492846FEF73FFC20464D
:1054D00009F0FCFB02223049204606F0E1FF0022E1
:1054E0003149204606F0DCFF204609F0EFFB02229E
:1054F0002949204606F0D4FF18224749204606F0E5
:10550000CFFF204609F0E2FB02222349204606F0A5
:10551000C7FF2D224149204606F0C2FF204609F070
:10552000D5FBD5F8FC203E492846FEF70FFC204667
:1055300009F0CCFB02221849204606F0B1FF0022F8
:105540001949204606F0ACFF204609F0BFFB0222B5
:105550001149204606F0A4FF11223249204606F0E8
:105560009FFF204609F0B2FB02220B49204606F0BD
:1055700097FF2D222C49204606F092FF204609F085
:10558000A5FBD5F8F82029492846FEF7DFFB204681
:1055900009F09CFB02224BE070C90100C4D5010058
:1055A000D0D5010014C6010058F10100DCD501007E
:1055B000F4D5010004D6010014D6010024D6010060
:1055C00030D601003CD6010028C601004CD60100AF
:1055D00068D601007CD6010090D60100A4D6010057
:1055E00044C60100A8C90100B8D6010040D301009B
:1055F000D8D60100E4D60100F4D6010004D701009A
:105600005CC601008CCF010014D70100DCD301007F
:10561000FCD3010078C601001CD4010034D701007E
:105620008CC6010068D4010064D70100A0C6010047
:10563000D249204606F034FF1422D149204606F014
:105640002FFF204609F042FB0222CC49204606F0FB
:1056500027FF0A22CB49204606F022FF204609F008
:1056600035FB0222C549204606F01AFF0B22C64927
:10567000204606F015FF204609F028FB0222BF490C
:10568000204606F00DFFC1492046FDF795F902229C
:10569000BA49204606F004FFBD492046FDF78CF9C3
:1056A0000222B649204606F0FBFEBA492046FDF725
:1056B00083F90222B149204606F0F2FEB64920469F
:1056C000FDF77AF90222AD49204606F0E9FEB3491A
:1056D0002046FDF771F9D5F80421B1492846FEF7B7
:1056E00035FB204609F0F2FA0222A449204606F0D2
:1056F000D7FEAC492046FDF75FF902229F492046BC
:1057000006F0CEFEA8492046FDF756F902229B4935
:10571000204606F0C5FEA5492046FDF74DF90222B8
:105720009649204606F0BCFEA1492046FDF744F903
:1057300002229249204606F0B3FE9E492046FDF71C
:105740003BF902228D49204606F0AAFE9A492046DE
:10575000FDF732F9D5F8082198492846FEF7F6FA00
:10576000204609F0B3FA02228449204606F098FE4A
:105770008C492046FDF720F902228049204606F098
:105780008FFE8F492046FDF717F902227B492046FC
:1057900006F086FE8B492046FDF70EF90222774976
:1057A000204606F07DFE88492046FDF705F90222D5
:1057B0007249204606F074FE84492046FDF7FCF845
:1057C00002226E49204606F06BFE81492046FDF715
:1057D000F3F802226949204606F062FE7D49204620
:1057E000FDF7EAF802226549204606F059FE7A499B
:1057F0002046FDF7E1F802226049204606F050FEFF
:1058000076492046FDF7D8F802225C49204606F08A
:1058100047FE73492046FDF7CFF8D5F80C217149B2
:105820002846FEF793FA204609F050FA022253491F
:10583000204606F035FE5B492046FDF7BDF8022202
:105840004E49204606F02CFE67492046FDF7B4F885
:1058500002224A49204606F023FE64492046FDF70D
:10586000ABF802224549204606F01AFE6049204660
:10587000FDF7A2F802224149204606F011FE5D49DB
:105880002046FDF799F802223C49204606F008FE22
:1058900059492046FDF790F802223849204606F083
:1058A000FFFD56492046FDF787F80222334920467E
:1058B00006F0F6FD52492046FDF77EF802222F49F8
:1058C000204606F0EDFD4F492046FDF775F8D5F866
:1058D00010214D492846FEF739FA204609F0F6F91D
:1058E00002222649204606F0DBFD48492046FDF706
:1058F00063F802222149204606F0D2FD29492046BC
:10590000FDF75AF802221D49204606F0C9FD40491C
:105910002046FDF751F802221849204606F0C0FD46
:1059200020492046FDF748F8204609F0CFF9022229
:105930001249204606F0B4FD1A492046FDF73CF80E
:1059400002220E49204606F0ABFD32492046FDF703
:1059500033F802220949204606F0A2FD2E492046CE
:10596000FDF72AF802220549204606F099FD2B4949
:105970002046FDF721F8022252E000BF70C9010065
:10598000ACD4010094D70100A0D7010024D60100B7
:1059900030D601003CD60100ACD70100BCD70100D5
:1059A000B4C6010058F1010038D001005CD50100F7
:1059B0006CD50100CCD70100DCD70100D0C60100B6
:1059C000DCD50100ECD70100FCD701000CD80100A8
:1059D00018D8010028D8010034D8010040D80100AF
:1059E0004CD80100E8C601004CD601005CD801008B
:1059F00070D8010084D8010098D80100ACD801000B
:105A0000C0D80100D4D8010008C70100A8C901000E
:105A1000E8D8010040D3010054D3010064D3010051
:105A2000D249204606F03CFDD1492046FCF7C4FF90
:105A30000222CE49204606F033FDCE492046FCF72F
:105A4000BBFF0222C949204606F02AFDCA4920466A
:105A5000FCF7B2FF0222C549204606F021FDC749E6
:105A60002046FCF7A9FF0222C049204606F018FD97
:105A7000C3492046FCF7A0FFD5F81421C1492846A8
:105A8000FEF764F9204609F021F90222B7492046C1
:105A900006F006FDBC492046FCF78EFF0222B34902
:105AA000204606F0FDFCB9492046FCF785FF02229E
:105AB000AE49204606F0F4FCB5492046FCF77CFFD1
:105AC0000222AA49204606F0EBFCB2492046FCF728
:105AD00073FF0222A549204606F0E2FCAE492046AB
